{
  "contractName": "Vibeheads",
  "abi": [
    {
      "inputs": [
        {
          "internalType": "string",
          "name": "_contractMetadata",
          "type": "string"
        },
        {
          "internalType": "string",
          "name": "_initBaseURI",
          "type": "string"
        }
      ],
      "stateMutability": "nonpayable",
      "type": "constructor"
    },
    {
      "anonymous": false,
      "inputs": [
        {
          "indexed": true,
          "internalType": "address",
          "name": "owner",
          "type": "address"
        },
        {
          "indexed": true,
          "internalType": "address",
          "name": "approved",
          "type": "address"
        },
        {
          "indexed": true,
          "internalType": "uint256",
          "name": "tokenId",
          "type": "uint256"
        }
      ],
      "name": "Approval",
      "type": "event"
    },
    {
      "anonymous": false,
      "inputs": [
        {
          "indexed": true,
          "internalType": "address",
          "name": "owner",
          "type": "address"
        },
        {
          "indexed": true,
          "internalType": "address",
          "name": "operator",
          "type": "address"
        },
        {
          "indexed": false,
          "internalType": "bool",
          "name": "approved",
          "type": "bool"
        }
      ],
      "name": "ApprovalForAll",
      "type": "event"
    },
    {
      "anonymous": false,
      "inputs": [
        {
          "indexed": true,
          "internalType": "address",
          "name": "from",
          "type": "address"
        },
        {
          "indexed": true,
          "internalType": "address",
          "name": "to",
          "type": "address"
        },
        {
          "indexed": true,
          "internalType": "uint256",
          "name": "tokenId",
          "type": "uint256"
        }
      ],
      "name": "Transfer",
      "type": "event"
    },
    {
      "inputs": [
        {
          "internalType": "address",
          "name": "to",
          "type": "address"
        },
        {
          "internalType": "uint256",
          "name": "tokenId",
          "type": "uint256"
        }
      ],
      "name": "approve",
      "outputs": [],
      "stateMutability": "nonpayable",
      "type": "function"
    },
    {
      "inputs": [
        {
          "internalType": "address",
          "name": "owner",
          "type": "address"
        }
      ],
      "name": "balanceOf",
      "outputs": [
        {
          "internalType": "uint256",
          "name": "",
          "type": "uint256"
        }
      ],
      "stateMutability": "view",
      "type": "function",
      "constant": true
    },
    {
      "inputs": [],
      "name": "baseTokenURI",
      "outputs": [
        {
          "internalType": "string",
          "name": "",
          "type": "string"
        }
      ],
      "stateMutability": "view",
      "type": "function",
      "constant": true
    },
    {
      "inputs": [],
      "name": "contractMetadata",
      "outputs": [
        {
          "internalType": "string",
          "name": "",
          "type": "string"
        }
      ],
      "stateMutability": "view",
      "type": "function",
      "constant": true
    },
    {
      "inputs": [],
      "name": "cost",
      "outputs": [
        {
          "internalType": "uint256",
          "name": "",
          "type": "uint256"
        }
      ],
      "stateMutability": "view",
      "type": "function",
      "constant": true
    },
    {
      "inputs": [
        {
          "internalType": "uint256",
          "name": "tokenId",
          "type": "uint256"
        }
      ],
      "name": "getApproved",
      "outputs": [
        {
          "internalType": "address",
          "name": "",
          "type": "address"
        }
      ],
      "stateMutability": "view",
      "type": "function",
      "constant": true
    },
    {
      "inputs": [
        {
          "internalType": "address",
          "name": "owner",
          "type": "address"
        },
        {
          "internalType": "address",
          "name": "operator",
          "type": "address"
        }
      ],
      "name": "isApprovedForAll",
      "outputs": [
        {
          "internalType": "bool",
          "name": "",
          "type": "bool"
        }
      ],
      "stateMutability": "view",
      "type": "function",
      "constant": true
    },
    {
      "inputs": [],
      "name": "maxMintAmount",
      "outputs": [
        {
          "internalType": "uint256",
          "name": "",
          "type": "uint256"
        }
      ],
      "stateMutability": "view",
      "type": "function",
      "constant": true
    },
    {
      "inputs": [],
      "name": "maxSupply",
      "outputs": [
        {
          "internalType": "uint256",
          "name": "",
          "type": "uint256"
        }
      ],
      "stateMutability": "view",
      "type": "function",
      "constant": true
    },
    {
      "inputs": [],
      "name": "name",
      "outputs": [
        {
          "internalType": "string",
          "name": "",
          "type": "string"
        }
      ],
      "stateMutability": "view",
      "type": "function",
      "constant": true
    },
    {
      "inputs": [],
      "name": "owner",
      "outputs": [
        {
          "internalType": "address",
          "name": "",
          "type": "address"
        }
      ],
      "stateMutability": "view",
      "type": "function",
      "constant": true
    },
    {
      "inputs": [
        {
          "internalType": "uint256",
          "name": "tokenId",
          "type": "uint256"
        }
      ],
      "name": "ownerOf",
      "outputs": [
        {
          "internalType": "address",
          "name": "",
          "type": "address"
        }
      ],
      "stateMutability": "view",
      "type": "function",
      "constant": true
    },
    {
      "inputs": [],
      "name": "preSalePaused",
      "outputs": [
        {
          "internalType": "bool",
          "name": "",
          "type": "bool"
        }
      ],
      "stateMutability": "view",
      "type": "function",
      "constant": true
    },
    {
      "inputs": [
        {
          "internalType": "address",
          "name": "",
          "type": "address"
        }
      ],
      "name": "presaleRedeemed",
      "outputs": [
        {
          "internalType": "uint256",
          "name": "",
          "type": "uint256"
        }
      ],
      "stateMutability": "view",
      "type": "function",
      "constant": true
    },
    {
      "inputs": [],
      "name": "provenance",
      "outputs": [
        {
          "internalType": "string",
          "name": "",
          "type": "string"
        }
      ],
      "stateMutability": "view",
      "type": "function",
      "constant": true
    },
    {
      "inputs": [],
      "name": "publicSalePaused",
      "outputs": [
        {
          "internalType": "bool",
          "name": "",
          "type": "bool"
        }
      ],
      "stateMutability": "view",
      "type": "function",
      "constant": true
    },
    {
      "inputs": [
        {
          "internalType": "address",
          "name": "from",
          "type": "address"
        },
        {
          "internalType": "address",
          "name": "to",
          "type": "address"
        },
        {
          "internalType": "uint256",
          "name": "tokenId",
          "type": "uint256"
        }
      ],
      "name": "safeTransferFrom",
      "outputs": [],
      "stateMutability": "nonpayable",
      "type": "function"
    },
    {
      "inputs": [
        {
          "internalType": "address",
          "name": "from",
          "type": "address"
        },
        {
          "internalType": "address",
          "name": "to",
          "type": "address"
        },
        {
          "internalType": "uint256",
          "name": "tokenId",
          "type": "uint256"
        },
        {
          "internalType": "bytes",
          "name": "_data",
          "type": "bytes"
        }
      ],
      "name": "safeTransferFrom",
      "outputs": [],
      "stateMutability": "nonpayable",
      "type": "function"
    },
    {
      "inputs": [
        {
          "internalType": "address",
          "name": "operator",
          "type": "address"
        },
        {
          "internalType": "bool",
          "name": "approved",
          "type": "bool"
        }
      ],
      "name": "setApprovalForAll",
      "outputs": [],
      "stateMutability": "nonpayable",
      "type": "function"
    },
    {
      "inputs": [
        {
          "internalType": "bytes4",
          "name": "interfaceId",
          "type": "bytes4"
        }
      ],
      "name": "supportsInterface",
      "outputs": [
        {
          "internalType": "bool",
          "name": "",
          "type": "bool"
        }
      ],
      "stateMutability": "view",
      "type": "function",
      "constant": true
    },
    {
      "inputs": [],
      "name": "symbol",
      "outputs": [
        {
          "internalType": "string",
          "name": "",
          "type": "string"
        }
      ],
      "stateMutability": "view",
      "type": "function",
      "constant": true
    },
    {
      "inputs": [],
      "name": "teamAddress",
      "outputs": [
        {
          "internalType": "address",
          "name": "",
          "type": "address"
        }
      ],
      "stateMutability": "view",
      "type": "function",
      "constant": true
    },
    {
      "inputs": [
        {
          "internalType": "uint256",
          "name": "index",
          "type": "uint256"
        }
      ],
      "name": "tokenByIndex",
      "outputs": [
        {
          "internalType": "uint256",
          "name": "",
          "type": "uint256"
        }
      ],
      "stateMutability": "view",
      "type": "function",
      "constant": true
    },
    {
      "inputs": [
        {
          "internalType": "address",
          "name": "owner",
          "type": "address"
        },
        {
          "internalType": "uint256",
          "name": "index",
          "type": "uint256"
        }
      ],
      "name": "tokenOfOwnerByIndex",
      "outputs": [
        {
          "internalType": "uint256",
          "name": "",
          "type": "uint256"
        }
      ],
      "stateMutability": "view",
      "type": "function",
      "constant": true
    },
    {
      "inputs": [
        {
          "internalType": "uint256",
          "name": "tokenId",
          "type": "uint256"
        }
      ],
      "name": "tokenURI",
      "outputs": [
        {
          "internalType": "string",
          "name": "",
          "type": "string"
        }
      ],
      "stateMutability": "view",
      "type": "function",
      "constant": true
    },
    {
      "inputs": [],
      "name": "totalSupply",
      "outputs": [
        {
          "internalType": "uint256",
          "name": "",
          "type": "uint256"
        }
      ],
      "stateMutability": "view",
      "type": "function",
      "constant": true
    },
    {
      "inputs": [
        {
          "internalType": "address",
          "name": "from",
          "type": "address"
        },
        {
          "internalType": "address",
          "name": "to",
          "type": "address"
        },
        {
          "internalType": "uint256",
          "name": "tokenId",
          "type": "uint256"
        }
      ],
      "name": "transferFrom",
      "outputs": [],
      "stateMutability": "nonpayable",
      "type": "function"
    },
    {
      "inputs": [
        {
          "internalType": "uint256",
          "name": "_mintAmount",
          "type": "uint256"
        }
      ],
      "name": "mint",
      "outputs": [
        {
          "internalType": "uint256",
          "name": "",
          "type": "uint256"
        }
      ],
      "stateMutability": "payable",
      "type": "function",
      "payable": true
    },
    {
      "inputs": [
        {
          "components": [
            {
              "internalType": "address",
              "name": "recipient",
              "type": "address"
            },
            {
              "internalType": "uint256",
              "name": "maxAmount",
              "type": "uint256"
            },
            {
              "internalType": "bytes",
              "name": "signature",
              "type": "bytes"
            }
          ],
          "internalType": "struct Vibeheads.VibePass",
          "name": "_pass",
          "type": "tuple"
        },
        {
          "internalType": "uint256",
          "name": "_redeemAmount",
          "type": "uint256"
        }
      ],
      "name": "redeem",
      "outputs": [
        {
          "internalType": "uint256",
          "name": "",
          "type": "uint256"
        }
      ],
      "stateMutability": "payable",
      "type": "function",
      "payable": true
    },
    {
      "inputs": [
        {
          "internalType": "string",
          "name": "_base",
          "type": "string"
        }
      ],
      "name": "setBaseTokenUri",
      "outputs": [],
      "stateMutability": "nonpayable",
      "type": "function"
    },
    {
      "inputs": [
        {
          "internalType": "uint256",
          "name": "_newMaxMintAmount",
          "type": "uint256"
        }
      ],
      "name": "setMintAmount",
      "outputs": [],
      "stateMutability": "nonpayable",
      "type": "function"
    },
    {
      "inputs": [
        {
          "internalType": "address",
          "name": "_newOwner",
          "type": "address"
        }
      ],
      "name": "setNewOwner",
      "outputs": [],
      "stateMutability": "nonpayable",
      "type": "function"
    },
    {
      "inputs": [
        {
          "internalType": "string",
          "name": "_newProvenance",
          "type": "string"
        }
      ],
      "name": "setProvenance",
      "outputs": [],
      "stateMutability": "nonpayable",
      "type": "function"
    },
    {
      "inputs": [
        {
          "internalType": "bool",
          "name": "_state",
          "type": "bool"
        }
      ],
      "name": "pausePresale",
      "outputs": [],
      "stateMutability": "nonpayable",
      "type": "function"
    },
    {
      "inputs": [
        {
          "internalType": "bool",
          "name": "_state",
          "type": "bool"
        }
      ],
      "name": "pausePublicsale",
      "outputs": [],
      "stateMutability": "nonpayable",
      "type": "function"
    },
    {
      "inputs": [],
      "name": "withdraw",
      "outputs": [],
      "stateMutability": "nonpayable",
      "type": "function"
    },
    {
      "inputs": [],
      "name": "contractURI",
      "outputs": [
        {
          "internalType": "string",
          "name": "",
          "type": "string"
        }
      ],
      "stateMutability": "view",
      "type": "function",
      "constant": true
    },
    {
      "inputs": [],
      "name": "getChainID",
      "outputs": [
        {
          "internalType": "uint256",
          "name": "",
          "type": "uint256"
        }
      ],
      "stateMutability": "view",
      "type": "function",
      "constant": true
    }
  ],
  "bytecode": "0x6101206040526115b3600d5567011c37937e080000600e556002600f556010805461ffff19166101011790553480156200003857600080fd5b5060405162003251380380620032518339810160408190526200005b916200034c565b6040518060400160405280600981526020016856696265686561647360b81b815250604051806040016040528060018152602001603160f81b8152506040518060400160405280600981526020016856696265686561647360b81b815250604051806040016040528060048152602001635649424560e01b8152508160009080519060200190620000ee929190620001d9565b50805162000104906001906020840190620001d9565b5050825160209384012082519284019290922060c083815260e08290524660a0818152604080517f8b73c3c69bb8fe3d512ecc4cf759cc79239f7b179b0ffacaa9a75d522b39400f818a0181905281830198909852606081019590955260808086019390935230858301528051808603909201825293909201909252805190850120905250610100526010805462010000600160b01b0319163362010000021790558251620001ba91600c9190850190620001d9565b508051620001d090600b906020840190620001d9565b505050620003f3565b828054620001e790620003b6565b90600052602060002090601f0160209004810192826200020b576000855562000256565b82601f106200022657805160ff191683800117855562000256565b8280016001018555821562000256579182015b828111156200025657825182559160200191906001019062000239565b506200026492915062000268565b5090565b5b8082111562000264576000815560010162000269565b634e487b7160e01b600052604160045260246000fd5b600082601f830112620002a757600080fd5b81516001600160401b0380821115620002c457620002c46200027f565b604051601f8301601f19908116603f01168101908282118183101715620002ef57620002ef6200027f565b816040528381526020925086838588010111156200030c57600080fd5b600091505b8382101562000330578582018301518183018401529082019062000311565b83821115620003425760008385830101525b9695505050505050565b600080604083850312156200036057600080fd5b82516001600160401b03808211156200037857600080fd5b620003868683870162000295565b935060208501519150808211156200039d57600080fd5b50620003ac8582860162000295565b9150509250929050565b600181811c90821680620003cb57607f821691505b60208210811415620003ed57634e487b7160e01b600052602260045260246000fd5b50919050565b60805160a05160c05160e05161010051612e1962000438600039600061257b015260006125ca015260006125a501526000612529015260006125520152612e196000f3fe6080604052600436106102255760003560e01c80638da5cb5b11610123578063c7cd997f116100ab578063d7299ef71161006f578063d7299ef714610616578063e8a3d48514610636578063e985e9c51461064b578063f5a1f5b414610694578063ffe630b5146106b457600080fd5b8063c7cd997f1461058b578063c87b56dd146105ab578063cc8aae84146105cb578063d547cfb7146105eb578063d5abeb011461060057600080fd5b8063a22cb465116100f2578063a22cb46514610509578063a592547a14610529578063a76b4d561461053c578063b88d4fde14610551578063c34b289d1461057157600080fd5b80638da5cb5b1461049b57806395652cfa146104c157806395d89b41146104e1578063a0712d68146104f657600080fd5b8063239c70ae116101b15780634f6ccce7116101755780634f6ccce7146103fb578063564b81ef1461041b5780636352211e1461042e57806370a082311461044e5780638b6048cf1461046e57600080fd5b8063239c70ae1461037057806323b872dd146103865780632f745c59146103a65780633ccfd60b146103c657806342842e0e146103db57600080fd5b8063095ea7b3116101f8578063095ea7b3146102d85780630f7309e8146102fa57806313faede61461030f57806318160ddd146103335780631c75f0851461034857600080fd5b806301ffc9a71461022a578063069cd5731461025f57806306fdde031461027e578063081812fc146102a0575b600080fd5b34801561023657600080fd5b5061024a6102453660046127e3565b6106d4565b60405190151581526020015b60405180910390f35b34801561026b57600080fd5b5060105461024a90610100900460ff1681565b34801561028a57600080fd5b506102936106ff565b6040516102569190612858565b3480156102ac57600080fd5b506102c06102bb36600461286b565b610791565b6040516001600160a01b039091168152602001610256565b3480156102e457600080fd5b506102f86102f33660046128a0565b61082b565b005b34801561030657600080fd5b50610293610941565b34801561031b57600080fd5b50610325600e5481565b604051908152602001610256565b34801561033f57600080fd5b50600854610325565b34801561035457600080fd5b506102c0736114183fc6e47a4b412a2b5231b7ed472dacff1981565b34801561037c57600080fd5b50610325600f5481565b34801561039257600080fd5b506102f86103a13660046128ca565b6109cf565b3480156103b257600080fd5b506103256103c13660046128a0565b610a00565b3480156103d257600080fd5b506102f8610a96565b3480156103e757600080fd5b506102f86103f63660046128ca565b610b2e565b34801561040757600080fd5b5061032561041636600461286b565b610b49565b34801561042757600080fd5b5046610325565b34801561043a57600080fd5b506102c061044936600461286b565b610bdc565b34801561045a57600080fd5b50610325610469366004612906565b610c53565b34801561047a57600080fd5b50610325610489366004612906565b60116020526000908152604090205481565b3480156104a757600080fd5b506010546102c0906201000090046001600160a01b031681565b3480156104cd57600080fd5b506102f86104dc3660046129ad565b610cda565b3480156104ed57600080fd5b50610293610d51565b61032561050436600461286b565b610d60565b34801561051557600080fd5b506102f8610524366004612a06565b610f57565b610325610537366004612a39565b61101c565b34801561054857600080fd5b50610293611411565b34801561055d57600080fd5b506102f861056c366004612a75565b61141e565b34801561057d57600080fd5b5060105461024a9060ff1681565b34801561059757600080fd5b506102f86105a636600461286b565b611456565b3480156105b757600080fd5b506102936105c636600461286b565b6114bb565b3480156105d757600080fd5b506102f86105e6366004612af1565b611596565b3480156105f757600080fd5b5061029361161b565b34801561060c57600080fd5b50610325600d5481565b34801561062257600080fd5b506102f8610631366004612af1565b611628565b34801561064257600080fd5b5061029361169b565b34801561065757600080fd5b5061024a610666366004612b0c565b6001600160a01b03918216600090815260056020908152604080832093909416825291909152205460ff1690565b3480156106a057600080fd5b506102f86106af366004612906565b6116aa565b3480156106c057600080fd5b506102f86106cf3660046129ad565b61172d565b60006001600160e01b0319821663780e9d6360e01b14806106f957506106f9826117a0565b92915050565b60606000805461070e90612b36565b80601f016020809104026020016040519081016040528092919081815260200182805461073a90612b36565b80156107875780601f1061075c57610100808354040283529160200191610787565b820191906000526020600020905b81548152906001019060200180831161076a57829003601f168201915b5050505050905090565b6000818152600260205260408120546001600160a01b031661080f5760405162461bcd60e51b815260206004820152602c60248201527f4552433732313a20617070726f76656420717565727920666f72206e6f6e657860448201526b34b9ba32b73a103a37b5b2b760a11b60648201526084015b60405180910390fd5b506000908152600460205260409020546001600160a01b031690565b600061083682610bdc565b9050806001600160a01b0316836001600160a01b031614156108a45760405162461bcd60e51b815260206004820152602160248201527f4552433732313a20617070726f76616c20746f2063757272656e74206f776e656044820152603960f91b6064820152608401610806565b336001600160a01b03821614806108c057506108c08133610666565b6109325760405162461bcd60e51b815260206004820152603860248201527f4552433732313a20617070726f76652063616c6c6572206973206e6f74206f7760448201527f6e6572206e6f7220617070726f76656420666f7220616c6c00000000000000006064820152608401610806565b61093c83836117f0565b505050565b600a805461094e90612b36565b80601f016020809104026020016040519081016040528092919081815260200182805461097a90612b36565b80156109c75780601f1061099c576101008083540402835291602001916109c7565b820191906000526020600020905b8154815290600101906020018083116109aa57829003601f168201915b505050505081565b6109d9338261185e565b6109f55760405162461bcd60e51b815260040161080690612b71565b61093c838383611951565b6000610a0b83610c53565b8210610a6d5760405162461bcd60e51b815260206004820152602b60248201527f455243373231456e756d657261626c653a206f776e657220696e646578206f7560448201526a74206f6620626f756e647360a81b6064820152608401610806565b506001600160a01b03919091166000908152600660209081526040808320938352929052205490565b6010546201000090046001600160a01b03163314610aeb5760405162461bcd60e51b8152602060048201526012602482015271596f752063616e277420776974686472617760701b6044820152606401610806565b604051736114183fc6e47a4b412a2b5231b7ed472dacff19904780156108fc02916000818181858888f19350505050158015610b2b573d6000803e3d6000fd5b50565b61093c8383836040518060200160405280600081525061141e565b6000610b5460085490565b8210610bb75760405162461bcd60e51b815260206004820152602c60248201527f455243373231456e756d657261626c653a20676c6f62616c20696e646578206f60448201526b7574206f6620626f756e647360a01b6064820152608401610806565b60088281548110610bca57610bca612bc2565b90600052602060002001549050919050565b6000818152600260205260408120546001600160a01b0316806106f95760405162461bcd60e51b815260206004820152602960248201527f4552433732313a206f776e657220717565727920666f72206e6f6e657869737460448201526832b73a103a37b5b2b760b91b6064820152608401610806565b60006001600160a01b038216610cbe5760405162461bcd60e51b815260206004820152602a60248201527f4552433732313a2062616c616e636520717565727920666f7220746865207a65604482015269726f206164647265737360b01b6064820152608401610806565b506001600160a01b031660009081526003602052604090205490565b6010546201000090046001600160a01b03163314610d3a5760405162461bcd60e51b815260206004820152601d60248201527f596f752063616e2774206368616e67652062617365546f6b656e5552490000006044820152606401610806565b8051610d4d90600b906020840190612734565b5050565b60606001805461070e90612b36565b600e54601054600091906201000090046001600160a01b0316331415610d8857506000610e3b565b601054610100900460ff1615610dd85760405162461bcd60e51b8152602060048201526015602482015274141d589b1a58c81cd85b19481a5cc81c185d5cd959605a1b6044820152606401610806565b600f54831115610e3b5760405162461bcd60e51b815260206004820152602860248201527f4d696e7420616d6f756e742067726561746572207468616e206d6178206d696e6044820152671d08185b5bdd5b9d60c21b6064820152608401610806565b60008311610e975760405162461bcd60e51b8152602060048201526024808201527f4d696e7420616d6f756e742073686f756c6420626520677265617465722074686044820152630616e20360e41b6064820152608401610806565b6000610ea260085490565b600d54909150610eb28583612bee565b1115610eec5760405162461bcd60e51b8152602060048201526009602482015268536f6c64206f75742160b81b6044820152606401610806565b610ef68483612c06565b341015610f3a5760405162461bcd60e51b8152602060048201526012602482015271496e73756666696369656e742066756e647360701b6044820152606401610806565b610f45338583611afc565b610f4f8482612bee565b949350505050565b6001600160a01b038216331415610fb05760405162461bcd60e51b815260206004820152601960248201527f4552433732313a20617070726f766520746f2063616c6c6572000000000000006044820152606401610806565b3360008181526005602090815260408083206001600160a01b03871680855290835292819020805460ff191686151590811790915590519081529192917f17307eab39ab6107e8899845ad3d59bd9653f200f220920489ca2b5937696c31910160405180910390a35050565b600e54601054600091906201000090046001600160a01b03163314156110445750600061108b565b60105460ff161561108b5760405162461bcd60e51b8152602060048201526011602482015270141c995cd85b19481a5cc81c185d5cd959607a1b6044820152606401610806565b33600061109786611b2b565b90506001600160a01b0381166110ff5760405162461bcd60e51b815260206004820152602760248201527f556e61626c6520746f207265636f766572207369676e65722066726f6d207369604482015266676e617475726560c81b6064820152608401610806565b6010546001600160a01b038281166201000090920416146111565760405162461bcd60e51b8152602060048201526011602482015270496e76616c69642056696265205061737360781b6044820152606401610806565b6111636020870187612906565b6001600160a01b0316826001600160a01b0316146111d15760405162461bcd60e51b815260206004820152602560248201527f546869732056696265205061737320646f6573206e6f742062656c6f6e6720746044820152646f20796f7560d81b6064820152608401610806565b600085116112305760405162461bcd60e51b815260206004820152602660248201527f52656465656d20616d6f756e742073686f756c6420626520677265617465722060448201526507468616e20360d41b6064820152608401610806565b85602001358511156112955760405162461bcd60e51b815260206004820152602860248201527f52656465656d20616d6f756e742067726561746572207468616e20616c6c6f776044820152671959081b1a5b5a5d60c21b6064820152608401610806565b6001600160a01b0382166000908152601160209081526040909120546112bd91880135612c25565b85111561130c5760405162461bcd60e51b815260206004820152601760248201527f566962652050617373206c696d697420726561636865640000000000000000006044820152606401610806565b600061131760085490565b600d549091506113278783612bee565b11156113755760405162461bcd60e51b815260206004820152601b60248201527f4d617820566962656865616473206c696d69742063726f7373656400000000006044820152606401610806565b61137f8685612c06565b3410156113c35760405162461bcd60e51b8152602060048201526012602482015271496e73756666696369656e742066756e647360701b6044820152606401610806565b6001600160a01b038316600090815260116020526040812080548892906113eb908490612bee565b909155506113fc9050838783611afc565b6114068682612bee565b979650505050505050565b600c805461094e90612b36565b611428338361185e565b6114445760405162461bcd60e51b815260040161080690612b71565b61145084848484611b8f565b50505050565b6010546201000090046001600160a01b031633146114b65760405162461bcd60e51b815260206004820152601c60248201527f596f752063616e2774206368616e6765206d696e7420616d6f756e74000000006044820152606401610806565b600f55565b6000818152600260205260409020546060906001600160a01b031661153a5760405162461bcd60e51b815260206004820152602f60248201527f4552433732314d657461646174613a2055524920717565727920666f72206e6f60448201526e3732bc34b9ba32b73a103a37b5b2b760891b6064820152608401610806565b6000611544611bc2565b90506000815111611564576040518060200160405280600081525061158f565b8061156e84611bd1565b60405160200161157f929190612c3c565b6040516020818303038152906040525b9392505050565b6010546201000090046001600160a01b031633146116015760405162461bcd60e51b815260206004820152602260248201527f596f752063616e2774206368616e6765207075626c69632073616c6520737461604482015261746560f01b6064820152608401610806565b601080549115156101000261ff0019909216919091179055565b600b805461094e90612b36565b6010546201000090046001600160a01b031633146116885760405162461bcd60e51b815260206004820152601e60248201527f596f752063616e2774206368616e67652070726573616c6520737461746500006044820152606401610806565b6010805460ff1916911515919091179055565b6060600c805461070e90612b36565b6010546201000090046001600160a01b031633146117035760405162461bcd60e51b81526020600482015260166024820152752cb7ba9031b0b713ba1031b430b733b29037bbb732b960511b6044820152606401610806565b601080546001600160a01b03909216620100000262010000600160b01b0319909216919091179055565b6010546201000090046001600160a01b0316331461178d5760405162461bcd60e51b815260206004820152601b60248201527f596f752063616e2774206368616e67652070726f76656e616e636500000000006044820152606401610806565b8051610d4d90600a906020840190612734565b60006001600160e01b031982166380ac58cd60e01b14806117d157506001600160e01b03198216635b5e139f60e01b145b806106f957506301ffc9a760e01b6001600160e01b03198316146106f9565b600081815260046020526040902080546001600160a01b0319166001600160a01b038416908117909155819061182582610bdc565b6001600160a01b03167f8c5be1e5ebec7d5bd14f71427d1e84f3dd0314c0f7b2291e5b200ac8c7c3b92560405160405180910390a45050565b6000818152600260205260408120546001600160a01b03166118d75760405162461bcd60e51b815260206004820152602c60248201527f4552433732313a206f70657261746f7220717565727920666f72206e6f6e657860448201526b34b9ba32b73a103a37b5b2b760a11b6064820152608401610806565b60006118e283610bdc565b9050806001600160a01b0316846001600160a01b0316148061191d5750836001600160a01b031661191284610791565b6001600160a01b0316145b80610f4f57506001600160a01b0380821660009081526005602090815260408083209388168352929052205460ff16610f4f565b826001600160a01b031661196482610bdc565b6001600160a01b0316146119cc5760405162461bcd60e51b815260206004820152602960248201527f4552433732313a207472616e73666572206f6620746f6b656e2074686174206960448201526839903737ba1037bbb760b91b6064820152608401610806565b6001600160a01b038216611a2e5760405162461bcd60e51b8152602060048201526024808201527f4552433732313a207472616e7366657220746f20746865207a65726f206164646044820152637265737360e01b6064820152608401610806565b611a39838383611ccf565b611a446000826117f0565b6001600160a01b0383166000908152600360205260408120805460019290611a6d908490612c25565b90915550506001600160a01b0382166000908152600360205260408120805460019290611a9b908490612bee565b909155505060008181526002602052604080822080546001600160a01b0319166001600160a01b0386811691821790925591518493918716917fddf252ad1be2c89b69c2b068fc378daa952ba7f163c4a11628f55a4df523b3ef91a4505050565b60015b82811161145057611b1984611b148385612bee565b611d87565b80611b2381612c6b565b915050611aff565b600080611b3783611da1565b905061158f611b496040850185612c86565b8080601f016020809104026020016040519081016040528093929190818152602001838380828437600092019190915250611b899250859150611e179050565b90611e6a565b611b9a848484611951565b611ba684848484611e8e565b6114505760405162461bcd60e51b815260040161080690612ccd565b6060600b805461070e90612b36565b606081611bf55750506040805180820190915260018152600360fc1b602082015290565b8160005b8115611c1f5780611c0981612c6b565b9150611c189050600a83612d35565b9150611bf9565b60008167ffffffffffffffff811115611c3a57611c3a612921565b6040519080825280601f01601f191660200182016040528015611c64576020820181803683370190505b5090505b8415610f4f57611c79600183612c25565b9150611c86600a86612d49565b611c91906030612bee565b60f81b818381518110611ca657611ca6612bc2565b60200101906001600160f81b031916908160001a905350611cc8600a86612d35565b9450611c68565b6001600160a01b038316611d2a57611d2581600880546000838152600960205260408120829055600182018355919091527ff3f7a9fe364faab93b216da50a3214154f22a0a2b415b23a84c8169e8b636ee30155565b611d4d565b816001600160a01b0316836001600160a01b031614611d4d57611d4d8382611f9b565b6001600160a01b038216611d645761093c81612038565b826001600160a01b0316826001600160a01b03161461093c5761093c82826120e7565b610d4d82826040518060200160405280600081525061212b565b60006106f97fb265f933b8e7d7a436d2269e1d5046138578fa3359bc7d08596e907a856f6c94611dd46020850185612906565b604080516020818101949094526001600160a01b03909216908201529084013560608201526080016040516020818303038152906040528051906020012061215e565b6040517f19457468657265756d205369676e6564204d6573736167653a0a3332000000006020820152603c8101829052600090605c01604051602081830303815290604052805190602001209050919050565b6000806000611e7985856121ac565b91509150611e868161221c565b509392505050565b60006001600160a01b0384163b15611f9057604051630a85bd0160e11b81526001600160a01b0385169063150b7a0290611ed2903390899088908890600401612d5d565b602060405180830381600087803b158015611eec57600080fd5b505af1925050508015611f1c575060408051601f3d908101601f19168201909252611f1991810190612d9a565b60015b611f76573d808015611f4a576040519150601f19603f3d011682016040523d82523d6000602084013e611f4f565b606091505b508051611f6e5760405162461bcd60e51b815260040161080690612ccd565b805181602001fd5b6001600160e01b031916630a85bd0160e11b149050610f4f565b506001949350505050565b60006001611fa884610c53565b611fb29190612c25565b600083815260076020526040902054909150808214612005576001600160a01b03841660009081526006602090815260408083208584528252808320548484528184208190558352600790915290208190555b5060009182526007602090815260408084208490556001600160a01b039094168352600681528383209183525290812055565b60085460009061204a90600190612c25565b6000838152600960205260408120546008805493945090928490811061207257612072612bc2565b90600052602060002001549050806008838154811061209357612093612bc2565b60009182526020808320909101929092558281526009909152604080822084905585825281205560088054806120cb576120cb612db7565b6001900381819060005260206000200160009055905550505050565b60006120f283610c53565b6001600160a01b039093166000908152600660209081526040808320868452825280832085905593825260079052919091209190915550565b61213583836123d7565b6121426000848484611e8e565b61093c5760405162461bcd60e51b815260040161080690612ccd565b60006106f961216b612525565b8360405161190160f01b6020820152602281018390526042810182905260009060620160405160208183030381529060405280519060200120905092915050565b6000808251604114156121e35760208301516040840151606085015160001a6121d787828585612618565b94509450505050612215565b82516040141561220d5760208301516040840151612202868383612705565b935093505050612215565b506000905060025b9250929050565b600081600481111561223057612230612dcd565b14156122395750565b600181600481111561224d5761224d612dcd565b141561229b5760405162461bcd60e51b815260206004820152601860248201527f45434453413a20696e76616c6964207369676e617475726500000000000000006044820152606401610806565b60028160048111156122af576122af612dcd565b14156122fd5760405162461bcd60e51b815260206004820152601f60248201527f45434453413a20696e76616c6964207369676e6174757265206c656e677468006044820152606401610806565b600381600481111561231157612311612dcd565b141561236a5760405162461bcd60e51b815260206004820152602260248201527f45434453413a20696e76616c6964207369676e6174757265202773272076616c604482015261756560f01b6064820152608401610806565b600481600481111561237e5761237e612dcd565b1415610b2b5760405162461bcd60e51b815260206004820152602260248201527f45434453413a20696e76616c6964207369676e6174757265202776272076616c604482015261756560f01b6064820152608401610806565b6001600160a01b03821661242d5760405162461bcd60e51b815260206004820181905260248201527f4552433732313a206d696e7420746f20746865207a65726f20616464726573736044820152606401610806565b6000818152600260205260409020546001600160a01b0316156124925760405162461bcd60e51b815260206004820152601c60248201527f4552433732313a20746f6b656e20616c7265616479206d696e746564000000006044820152606401610806565b61249e60008383611ccf565b6001600160a01b03821660009081526003602052604081208054600192906124c7908490612bee565b909155505060008181526002602052604080822080546001600160a01b0319166001600160a01b03861690811790915590518392907fddf252ad1be2c89b69c2b068fc378daa952ba7f163c4a11628f55a4df523b3ef908290a45050565b60007f000000000000000000000000000000000000000000000000000000000000000046141561257457507f000000000000000000000000000000000000000000000000000000000000000090565b50604080517f00000000000000000000000000000000000000000000000000000000000000006020808301919091527f0000000000000000000000000000000000000000000000000000000000000000828401527f000000000000000000000000000000000000000000000000000000000000000060608301524660808301523060a0808401919091528351808403909101815260c0909201909252805191012090565b6000807f7fffffffffffffffffffffffffffffff5d576e7357a4501ddfe92f46681b20a083111561264f57506000905060036126fc565b8460ff16601b1415801561266757508460ff16601c14155b1561267857506000905060046126fc565b6040805160008082526020820180845289905260ff881692820192909252606081018690526080810185905260019060a0016020604051602081039080840390855afa1580156126cc573d6000803e3d6000fd5b5050604051601f1901519150506001600160a01b0381166126f5576000600192509250506126fc565b9150600090505b94509492505050565b6000806001600160ff1b03831660ff84901c601b0161272687828885612618565b935093505050935093915050565b82805461274090612b36565b90600052602060002090601f01602090048101928261276257600085556127a8565b82601f1061277b57805160ff19168380011785556127a8565b828001600101855582156127a8579182015b828111156127a857825182559160200191906001019061278d565b506127b49291506127b8565b5090565b5b808211156127b457600081556001016127b9565b6001600160e01b031981168114610b2b57600080fd5b6000602082840312156127f557600080fd5b813561158f816127cd565b60005b8381101561281b578181015183820152602001612803565b838111156114505750506000910152565b60008151808452612844816020860160208601612800565b601f01601f19169290920160200192915050565b60208152600061158f602083018461282c565b60006020828403121561287d57600080fd5b5035919050565b80356001600160a01b038116811461289b57600080fd5b919050565b600080604083850312156128b357600080fd5b6128bc83612884565b946020939093013593505050565b6000806000606084860312156128df57600080fd5b6128e884612884565b92506128f660208501612884565b9150604084013590509250925092565b60006020828403121561291857600080fd5b61158f82612884565b634e487b7160e01b600052604160045260246000fd5b600067ffffffffffffffff8084111561295257612952612921565b604051601f8501601f19908116603f0116810190828211818310171561297a5761297a612921565b8160405280935085815286868601111561299357600080fd5b858560208301376000602087830101525050509392505050565b6000602082840312156129bf57600080fd5b813567ffffffffffffffff8111156129d657600080fd5b8201601f810184136129e757600080fd5b610f4f84823560208401612937565b8035801515811461289b57600080fd5b60008060408385031215612a1957600080fd5b612a2283612884565b9150612a30602084016129f6565b90509250929050565b60008060408385031215612a4c57600080fd5b823567ffffffffffffffff811115612a6357600080fd5b8301606081860312156128bc57600080fd5b60008060008060808587031215612a8b57600080fd5b612a9485612884565b9350612aa260208601612884565b925060408501359150606085013567ffffffffffffffff811115612ac557600080fd5b8501601f81018713612ad657600080fd5b612ae587823560208401612937565b91505092959194509250565b600060208284031215612b0357600080fd5b61158f826129f6565b60008060408385031215612b1f57600080fd5b612b2883612884565b9150612a3060208401612884565b600181811c90821680612b4a57607f821691505b60208210811415612b6b57634e487b7160e01b600052602260045260246000fd5b50919050565b60208082526031908201527f4552433732313a207472616e736665722063616c6c6572206973206e6f74206f6040820152701ddb995c881b9bdc88185c1c1c9bdd9959607a1b606082015260800190565b634e487b7160e01b600052603260045260246000fd5b634e487b7160e01b600052601160045260246000fd5b60008219821115612c0157612c01612bd8565b500190565b6000816000190483118215151615612c2057612c20612bd8565b500290565b600082821015612c3757612c37612bd8565b500390565b60008351612c4e818460208801612800565b835190830190612c62818360208801612800565b01949350505050565b6000600019821415612c7f57612c7f612bd8565b5060010190565b6000808335601e19843603018112612c9d57600080fd5b83018035915067ffffffffffffffff821115612cb857600080fd5b60200191503681900382131561221557600080fd5b60208082526032908201527f4552433732313a207472616e7366657220746f206e6f6e20455243373231526560408201527131b2b4bb32b91034b6b83632b6b2b73a32b960711b606082015260800190565b634e487b7160e01b600052601260045260246000fd5b600082612d4457612d44612d1f565b500490565b600082612d5857612d58612d1f565b500690565b6001600160a01b0385811682528416602082015260408101839052608060608201819052600090612d909083018461282c565b9695505050505050565b600060208284031215612dac57600080fd5b815161158f816127cd565b634e487b7160e01b600052603160045260246000fd5b634e487b7160e01b600052602160045260246000fdfea264697066735822122080b38d29b149578810dc3cc7ff1f3de3cd847b121c852bcbe6fa6c0b5bac4d5264736f6c63430008090033",
  "immutableReferences": {
    "3499": [
      {
        "length": 32,
        "start": 9554
      }
    ],
    "3501": [
      {
        "length": 32,
        "start": 9513
      }
    ],
    "3503": [
      {
        "length": 32,
        "start": 9637
      }
    ],
    "3505": [
      {
        "length": 32,
        "start": 9674
      }
    ],
    "3507": [
      {
        "length": 32,
        "start": 9595
      }
    ]
  },
  "source": "// SPDX-License-Identifier: MIT                                                                                                    \r\n\r\n/* \r\n\r\n+ + + + + + + + + + + + + + + + + + + + + + + + + + + + + + + + + + + + + + + + + + + + + + + + + + + + + + + + +\r\n+                                                ..........                                                     +\r\n+                               -+##*-.         ............            ......                                  +\r\n+         ..:----:::.....    .=#@@@@@@%+.                           ...=+##**+==.        :*:-%%=::+             +\r\n+     .#+++=++++====---:::.  #@@@%%%##%%*.                         :+#*+-====#@@*-     :+#**+****%@#-.          +\r\n+     :@@#*++++++===-:---:   *+=.        .      ....    .....    --.#=       .-#@%-.   #%*+=.:--=+@@@#.         +\r\n+      +@@%%%%%#*****+=--=  -#==:..      .     ::::.......::::  :*=#= ...  ..::+@@%#. =%##-:::-=++%@@@*         +\r\n+       .#%@%####++***+*=: -+%*++*:.:====:   :+=--:::..:::--=+=  +:::-=+=:.:*++#%@%%= +%#*+++-=*##@@@@+         +\r\n+        +@@@@@@%+#@@@#*#  =@@###+-..=**:-=  #+#+=---::---==*+@. :  -:*#=. =+###@*-#. =%##%@#=+@#@@@@@+         +\r\n+        :@@@@@@#=+***#*=  .@@#=--:  ..::+-  *@@#+==----==+*%@@  :=:=::..+#%=:-#@%%*  -%%#**=-=%##@@@@=         +\r\n+         :%@@@@%#**##%-.    +@##%%##+==+-.   .-%#*++==++**#+.     :=%+*%@@@@%#%%#.   :#*#**++#@@%@@@@=         +\r\n+          :%%%%@%%*+#+      :@@@@%#%#%##.      -##*++++**#+       .*%*=+-===+=%@.    .#.#*+*#@@@@@#@@-         +\r\n+           :@@@%####+       .+@@#++=+@@-.   .::-=********=-:::    -=..+*-::=#= -*=.   %.-*%*+*%@%=.%%-         +\r\n+          .%@@@@@@@@@:    *@@%@@@@@@@@*#@@+ -:=+**%%%%%%*+++:-     -=+*%@@@%    .=:  .* -#%%%@@@@*:##:         +\r\n+      :%+=%@@@@%*%@%%#-  +@@@@@@@@@@#+==%%*.-:=+%*#@@@@%*##=:-    .--=*#%%%#+#%@@@=   #*%%%#*#%@%%@@+.         +\r\n+     =+@@@@@@@@%#%@%%%@%*@@@@@@@@@@%###%###=#=:+#*######*#*--*-.   .  .:-*+=****#@@@@@@%%%%##**#%@@@@@#=       +\r\n+     @@@@@@@@@@@@@@%%@%@@@@@%@@@@@@@@%=:=::-+*-=***+**+*##=:=*-:.....  .:::::=*%@@@@@@@@%%%#**###*%%#%%@@      +\r\n+                                                                                                               +\r\n+                                                                                                               +\r\n+                                                                                                               +\r\n+                                                                               +\r\n+                                                                               +\r\n+                                                                                                               +\r\n+ + + + + + + + + + + + + + + + + + + + + + + + + + + + + + + + + + + + + + + + + + + + + + + + + + + + + + + + +\r\n\r\nWritten by @0xmend\r\n\r\n*/\r\n\r\npragma solidity ^0.8.9;\r\n\r\nimport \"@openzeppelin/contracts/token/ERC721/extensions/ERC721Enumerable.sol\";\r\nimport \"@openzeppelin/contracts/utils/cryptography/ECDSA.sol\";\r\nimport \"@openzeppelin/contracts/utils/cryptography/draft-EIP712.sol\";\r\n\r\ncontract Vibeheads is ERC721Enumerable, EIP712 {\r\n    using ECDSA for bytes32;\r\n    using Strings for uint256;\r\n    string private constant SIGNING_DOMAIN = \"Vibeheads\";\r\n    string private constant SIGNATURE_VERSION = \"1\";\r\n    string public provenance;\r\n    string public baseTokenURI;\r\n    string public contractMetadata;\r\n    uint256 public maxSupply = 5555;\r\n    uint256 public cost = 0.08 ether;\r\n    uint256 public maxMintAmount = 2;\r\n    bool public preSalePaused = true;\r\n    bool public publicSalePaused = true;\r\n    address public owner;\r\n    address public constant teamAddress = 0x6114183FC6E47a4B412a2b5231B7Ed472DAcfF19;\r\n    mapping(address => uint256) public presaleRedeemed;\r\n\r\n    constructor(string memory _contractMetadata, string memory _initBaseURI) \r\n        ERC721(\"Vibeheads\", \"VIBE\")\r\n        EIP712(SIGNING_DOMAIN, SIGNATURE_VERSION) {\r\n            owner = msg.sender;\r\n            contractMetadata = _contractMetadata;\r\n            baseTokenURI = _initBaseURI;\r\n        }\r\n\r\n    struct VibePass {\r\n        address recipient;\r\n        uint256 maxAmount;\r\n        bytes signature;\r\n    }\r\n\r\n    function _mintVibehead(address to, uint256 amount, uint256 supply) internal {\r\n        for (uint256 i = 1; i <= amount; i++) {\r\n            _safeMint(to, supply + i);\r\n        }\r\n    }\r\n\r\n    function mint(uint256 _mintAmount) external payable returns (uint256) {\r\n        uint256 mintCost = cost;\r\n        if (msg.sender == owner) {\r\n            mintCost = 0;\r\n        } else {\r\n            require(!publicSalePaused, \"Public sale is paused\");\r\n            require(_mintAmount <= maxMintAmount, \"Mint amount greater than max mint amount\");\r\n        }\r\n        require(_mintAmount > 0, \"Mint amount should be greater than 0\");\r\n        uint256 supply = totalSupply();\r\n        require(supply + _mintAmount <= maxSupply, \"Sold out!\");\r\n        require(msg.value >= mintCost * _mintAmount, \"Insufficient funds\");\r\n        _mintVibehead(msg.sender, _mintAmount, supply);\r\n        return supply + _mintAmount;\r\n    }\r\n\r\n    function redeem(VibePass calldata _pass, uint256 _redeemAmount) external payable returns (uint256) {\r\n        uint256 mintCost = cost;\r\n        if (msg.sender == owner) {\r\n            mintCost = 0;\r\n        } else {\r\n            require(!preSalePaused, \"Presale is paused\");\r\n        }\r\n        address redeemer = msg.sender;\r\n        address signer = _verify(_pass);\r\n        require(signer != address(0), \"Unable to recover signer from signature\");\r\n        require(signer == owner, \"Invalid Vibe Pass\");\r\n        require(redeemer == _pass.recipient, \"This Vibe Pass does not belong to you\");\r\n        require(_redeemAmount > 0, \"Redeem amount should be greater than 0\");\r\n        require(_redeemAmount <= _pass.maxAmount, \"Redeem amount greater than allowed limit\");\r\n        require(_redeemAmount <= _pass.maxAmount - presaleRedeemed[redeemer], \"Vibe Pass limit reached\");\r\n        uint256 supply = totalSupply();\r\n        require(supply + _redeemAmount <= maxSupply, \"Max Vibeheads limit crossed\");\r\n        require(msg.value >= mintCost * _redeemAmount, \"Insufficient funds\");\r\n        presaleRedeemed[redeemer] += _redeemAmount;\r\n        _mintVibehead(redeemer, _redeemAmount, supply);\r\n        return supply + _redeemAmount;\r\n    }\r\n\r\n    function setBaseTokenUri(string memory _base) external {\r\n        require(msg.sender == owner, \"You can't change baseTokenURI\");\r\n        baseTokenURI = _base;\r\n    }\r\n    \r\n    function _baseURI() internal view virtual override returns (string memory) {\r\n        return baseTokenURI;\r\n    }\r\n\r\n    function setMintAmount(uint256 _newMaxMintAmount) external {\r\n        require(msg.sender == owner, \"You can't change mint amount\");\r\n        maxMintAmount = _newMaxMintAmount;\r\n    }\r\n\r\n    function setNewOwner(address _newOwner) external {\r\n        require(msg.sender == owner, \"You can't change owner\");\r\n        owner = _newOwner;\r\n    }\r\n\r\n    function setProvenance(string memory _newProvenance) external {\r\n        require(msg.sender == owner, \"You can't change provenance\");\r\n        provenance = _newProvenance;\r\n    }\r\n\r\n    function pausePresale(bool _state) external {\r\n        require(msg.sender == owner, \"You can't change presale state\");\r\n        preSalePaused = _state;\r\n    }\r\n\r\n    function pausePublicsale(bool _state) external {\r\n        require(msg.sender == owner, \"You can't change public sale state\");\r\n        publicSalePaused = _state;\r\n    }\r\n\r\n    function withdraw() external {\r\n        require(msg.sender == owner, \"You can't withdraw\");\r\n        payable(teamAddress).transfer(address(this).balance);\r\n    }\r\n\r\n    function contractURI() public view returns (string memory) {\r\n        return contractMetadata;\r\n    }\r\n\r\n    function _hash(VibePass calldata pass) internal view returns (bytes32) {\r\n        return  _hashTypedDataV4(keccak256(abi.encode(keccak256(\"VibePass(address recipient,uint256 maxAmount)\"), pass.recipient, pass.maxAmount)));\r\n    }\r\n\r\n    function _verify(VibePass calldata pass) internal view returns (address) {\r\n        bytes32 digest = _hash(pass);\r\n        return digest.toEthSignedMessageHash().recover(pass.signature);\r\n    }\r\n\r\n    function getChainID() external view returns (uint256) {\r\n        uint256 id;\r\n        assembly { id := chainid() }\r\n        return id;\r\n    }\r\n}",
  "sourcePath": "C:\\Users\\aakash\\Documents\\vibeheads-main-legal\\contracts\\Vibeheads.sol",
  "compiler": {
    "name": "solc",
    "version": "0.8.9+commit.e5eed63a.Emscripten.clang"
  },
  "schemaVersion": "3.4.3",
  "updatedAt": "2021-11-05T14:40:38.096Z",
  "networkType": "ethereum",
  "devdoc": {
    "kind": "dev",
    "methods": {
      "approve(address,uint256)": {
        "details": "See {IERC721-approve}."
      },
      "balanceOf(address)": {
        "details": "See {IERC721-balanceOf}."
      },
      "getApproved(uint256)": {
        "details": "See {IERC721-getApproved}."
      },
      "isApprovedForAll(address,address)": {
        "details": "See {IERC721-isApprovedForAll}."
      },
      "name()": {
        "details": "See {IERC721Metadata-name}."
      },
      "ownerOf(uint256)": {
        "details": "See {IERC721-ownerOf}."
      },
      "safeTransferFrom(address,address,uint256)": {
        "details": "See {IERC721-safeTransferFrom}."
      },
      "safeTransferFrom(address,address,uint256,bytes)": {
        "details": "See {IERC721-safeTransferFrom}."
      },
      "setApprovalForAll(address,bool)": {
        "details": "See {IERC721-setApprovalForAll}."
      },
      "supportsInterface(bytes4)": {
        "details": "See {IERC165-supportsInterface}."
      },
      "symbol()": {
        "details": "See {IERC721Metadata-symbol}."
      },
      "tokenByIndex(uint256)": {
        "details": "See {IERC721Enumerable-tokenByIndex}."
      },
      "tokenOfOwnerByIndex(address,uint256)": {
        "details": "See {IERC721Enumerable-tokenOfOwnerByIndex}."
      },
      "tokenURI(uint256)": {
        "details": "See {IERC721Metadata-tokenURI}."
      },
      "totalSupply()": {
        "details": "See {IERC721Enumerable-totalSupply}."
      },
      "transferFrom(address,address,uint256)": {
        "details": "See {IERC721-transferFrom}."
      }
    },
    "version": 1
  },
  "userdoc": {
    "kind": "user",
    "methods": {},
    "version": 1
  }
}