{
  "contractName": "VibePass",
  "abi": [
    {
      "inputs": [
        {
          "internalType": "string",
          "name": "_contractMetadata",
          "type": "string"
        },
        {
          "internalType": "string",
          "name": "baseURI",
          "type": "string"
        }
      ],
      "stateMutability": "nonpayable",
      "type": "constructor"
    },
    {
      "anonymous": false,
      "inputs": [
        {
          "indexed": true,
          "internalType": "address",
          "name": "account",
          "type": "address"
        },
        {
          "indexed": true,
          "internalType": "address",
          "name": "operator",
          "type": "address"
        },
        {
          "indexed": false,
          "internalType": "bool",
          "name": "approved",
          "type": "bool"
        }
      ],
      "name": "ApprovalForAll",
      "type": "event"
    },
    {
      "anonymous": false,
      "inputs": [
        {
          "indexed": true,
          "internalType": "address",
          "name": "operator",
          "type": "address"
        },
        {
          "indexed": true,
          "internalType": "address",
          "name": "from",
          "type": "address"
        },
        {
          "indexed": true,
          "internalType": "address",
          "name": "to",
          "type": "address"
        },
        {
          "indexed": false,
          "internalType": "uint256[]",
          "name": "ids",
          "type": "uint256[]"
        },
        {
          "indexed": false,
          "internalType": "uint256[]",
          "name": "values",
          "type": "uint256[]"
        }
      ],
      "name": "TransferBatch",
      "type": "event"
    },
    {
      "anonymous": false,
      "inputs": [
        {
          "indexed": true,
          "internalType": "address",
          "name": "operator",
          "type": "address"
        },
        {
          "indexed": true,
          "internalType": "address",
          "name": "from",
          "type": "address"
        },
        {
          "indexed": true,
          "internalType": "address",
          "name": "to",
          "type": "address"
        },
        {
          "indexed": false,
          "internalType": "uint256",
          "name": "id",
          "type": "uint256"
        },
        {
          "indexed": false,
          "internalType": "uint256",
          "name": "value",
          "type": "uint256"
        }
      ],
      "name": "TransferSingle",
      "type": "event"
    },
    {
      "anonymous": false,
      "inputs": [
        {
          "indexed": false,
          "internalType": "string",
          "name": "value",
          "type": "string"
        },
        {
          "indexed": true,
          "internalType": "uint256",
          "name": "id",
          "type": "uint256"
        }
      ],
      "name": "URI",
      "type": "event"
    },
    {
      "inputs": [
        {
          "internalType": "address",
          "name": "account",
          "type": "address"
        },
        {
          "internalType": "uint256",
          "name": "id",
          "type": "uint256"
        }
      ],
      "name": "balanceOf",
      "outputs": [
        {
          "internalType": "uint256",
          "name": "",
          "type": "uint256"
        }
      ],
      "stateMutability": "view",
      "type": "function",
      "constant": true
    },
    {
      "inputs": [
        {
          "internalType": "address[]",
          "name": "accounts",
          "type": "address[]"
        },
        {
          "internalType": "uint256[]",
          "name": "ids",
          "type": "uint256[]"
        }
      ],
      "name": "balanceOfBatch",
      "outputs": [
        {
          "internalType": "uint256[]",
          "name": "",
          "type": "uint256[]"
        }
      ],
      "stateMutability": "view",
      "type": "function",
      "constant": true
    },
    {
      "inputs": [
        {
          "internalType": "address",
          "name": "account",
          "type": "address"
        },
        {
          "internalType": "address",
          "name": "operator",
          "type": "address"
        }
      ],
      "name": "isApprovedForAll",
      "outputs": [
        {
          "internalType": "bool",
          "name": "",
          "type": "bool"
        }
      ],
      "stateMutability": "view",
      "type": "function",
      "constant": true
    },
    {
      "inputs": [],
      "name": "owner",
      "outputs": [
        {
          "internalType": "address",
          "name": "",
          "type": "address"
        }
      ],
      "stateMutability": "view",
      "type": "function",
      "constant": true
    },
    {
      "inputs": [
        {
          "internalType": "address",
          "name": "from",
          "type": "address"
        },
        {
          "internalType": "address",
          "name": "to",
          "type": "address"
        },
        {
          "internalType": "uint256[]",
          "name": "ids",
          "type": "uint256[]"
        },
        {
          "internalType": "uint256[]",
          "name": "amounts",
          "type": "uint256[]"
        },
        {
          "internalType": "bytes",
          "name": "data",
          "type": "bytes"
        }
      ],
      "name": "safeBatchTransferFrom",
      "outputs": [],
      "stateMutability": "nonpayable",
      "type": "function"
    },
    {
      "inputs": [
        {
          "internalType": "address",
          "name": "from",
          "type": "address"
        },
        {
          "internalType": "address",
          "name": "to",
          "type": "address"
        },
        {
          "internalType": "uint256",
          "name": "id",
          "type": "uint256"
        },
        {
          "internalType": "uint256",
          "name": "amount",
          "type": "uint256"
        },
        {
          "internalType": "bytes",
          "name": "data",
          "type": "bytes"
        }
      ],
      "name": "safeTransferFrom",
      "outputs": [],
      "stateMutability": "nonpayable",
      "type": "function"
    },
    {
      "inputs": [
        {
          "internalType": "address",
          "name": "operator",
          "type": "address"
        },
        {
          "internalType": "bool",
          "name": "approved",
          "type": "bool"
        }
      ],
      "name": "setApprovalForAll",
      "outputs": [],
      "stateMutability": "nonpayable",
      "type": "function"
    },
    {
      "inputs": [
        {
          "internalType": "bytes4",
          "name": "interfaceId",
          "type": "bytes4"
        }
      ],
      "name": "supportsInterface",
      "outputs": [
        {
          "internalType": "bool",
          "name": "",
          "type": "bool"
        }
      ],
      "stateMutability": "view",
      "type": "function",
      "constant": true
    },
    {
      "inputs": [
        {
          "internalType": "uint256",
          "name": "",
          "type": "uint256"
        }
      ],
      "name": "uri",
      "outputs": [
        {
          "internalType": "string",
          "name": "",
          "type": "string"
        }
      ],
      "stateMutability": "view",
      "type": "function",
      "constant": true
    },
    {
      "inputs": [
        {
          "internalType": "address",
          "name": "",
          "type": "address"
        }
      ],
      "name": "vibePassVoucher",
      "outputs": [
        {
          "internalType": "string",
          "name": "",
          "type": "string"
        }
      ],
      "stateMutability": "view",
      "type": "function",
      "constant": true
    },
    {
      "inputs": [],
      "name": "contractURI",
      "outputs": [
        {
          "internalType": "string",
          "name": "",
          "type": "string"
        }
      ],
      "stateMutability": "view",
      "type": "function",
      "constant": true
    },
    {
      "inputs": [],
      "name": "name",
      "outputs": [
        {
          "internalType": "string",
          "name": "",
          "type": "string"
        }
      ],
      "stateMutability": "pure",
      "type": "function",
      "constant": true
    },
    {
      "inputs": [],
      "name": "symbol",
      "outputs": [
        {
          "internalType": "string",
          "name": "",
          "type": "string"
        }
      ],
      "stateMutability": "pure",
      "type": "function",
      "constant": true
    },
    {
      "inputs": [
        {
          "internalType": "string",
          "name": "_baseURI",
          "type": "string"
        },
        {
          "internalType": "string",
          "name": "_contractMetadata",
          "type": "string"
        }
      ],
      "name": "setURI",
      "outputs": [],
      "stateMutability": "nonpayable",
      "type": "function"
    },
    {
      "inputs": [
        {
          "internalType": "address",
          "name": "to",
          "type": "address"
        },
        {
          "internalType": "string",
          "name": "_passData",
          "type": "string"
        }
      ],
      "name": "mint",
      "outputs": [],
      "stateMutability": "nonpayable",
      "type": "function"
    }
  ],
  "bytecode": "0x60806040523480156200001157600080fd5b5060405162001cbd38038062001cbd8339810160408190526200003491620001fd565b80620000408162000071565b50600480546001600160a01b031916331790558151620000689060059060208501906200008a565b505050620002a4565b8051620000869060029060208401906200008a565b5050565b828054620000989062000267565b90600052602060002090601f016020900481019282620000bc576000855562000107565b82601f10620000d757805160ff191683800117855562000107565b8280016001018555821562000107579182015b8281111562000107578251825591602001919060010190620000ea565b506200011592915062000119565b5090565b5b808211156200011557600081556001016200011a565b634e487b7160e01b600052604160045260246000fd5b600082601f8301126200015857600080fd5b81516001600160401b038082111562000175576200017562000130565b604051601f8301601f19908116603f01168101908282118183101715620001a057620001a062000130565b81604052838152602092508683858801011115620001bd57600080fd5b600091505b83821015620001e15785820183015181830184015290820190620001c2565b83821115620001f35760008385830101525b9695505050505050565b600080604083850312156200021157600080fd5b82516001600160401b03808211156200022957600080fd5b620002378683870162000146565b935060208501519150808211156200024e57600080fd5b506200025d8582860162000146565b9150509250929050565b600181811c908216806200027c57607f821691505b602082108114156200029e57634e487b7160e01b600052602260045260246000fd5b50919050565b611a0980620002b46000396000f3fe608060405234801561001057600080fd5b50600436106100f45760003560e01c80638da5cb5b11610097578063d0def52111610066578063d0def5211461023f578063e8a3d48514610252578063e985e9c51461025a578063f242432a1461029657600080fd5b80638da5cb5b146101ca57806395d89b41146101f5578063a22cb46514610219578063bf2db4c81461022c57600080fd5b80630e89341c116100d35780630e89341c1461016f5780632eb2c2d6146101825780634e1273f41461019757806388b6f187146101b757600080fd5b8062fdd58e146100f957806301ffc9a71461011f57806306fdde0314610142575b600080fd5b61010c610107366004611152565b6102a9565b6040519081526020015b60405180910390f35b61013261012d366004611195565b610340565b6040519015158152602001610116565b604080518082019091526008815267566962655061737360c01b60208201525b6040516101169190611206565b61016261017d366004611219565b610392565b61019561019036600461137e565b610426565b005b6101aa6101a5366004611428565b6104bd565b604051610116919061152e565b6101626101c5366004611541565b6105e7565b6004546101dd906001600160a01b031681565b6040516001600160a01b039091168152602001610116565b604080518082019091526008815267564942455041535360c01b6020820152610162565b61019561022736600461155c565b610681565b61019561023a366004611598565b610758565b61019561024d3660046115f2565b6107ca565b6101626108ed565b610132610268366004611636565b6001600160a01b03918216600090815260016020908152604080832093909416825291909152205460ff1690565b6101956102a4366004611669565b61097f565b60006001600160a01b03831661031a5760405162461bcd60e51b815260206004820152602b60248201527f455243313135353a2062616c616e636520717565727920666f7220746865207a60448201526a65726f206164647265737360a81b60648201526084015b60405180910390fd5b506000908152602081815260408083206001600160a01b03949094168352929052205490565b60006001600160e01b03198216636cdb3d1360e11b148061037157506001600160e01b031982166303a24d0760e21b145b8061038c57506301ffc9a760e01b6001600160e01b03198316145b92915050565b6060600280546103a1906116ce565b80601f01602080910402602001604051908101604052809291908181526020018280546103cd906116ce565b801561041a5780601f106103ef5761010080835404028352916020019161041a565b820191906000526020600020905b8154815290600101906020018083116103fd57829003601f168201915b50505050509050919050565b6001600160a01b03851633148061044257506104428533610268565b6104a95760405162461bcd60e51b815260206004820152603260248201527f455243313135353a207472616e736665722063616c6c6572206973206e6f74206044820152711bdddb995c881b9bdc88185c1c1c9bdd995960721b6064820152608401610311565b6104b68585858585610a06565b5050505050565b606081518351146105225760405162461bcd60e51b815260206004820152602960248201527f455243313135353a206163636f756e747320616e6420696473206c656e677468604482015268040dad2e6dac2e8c6d60bb1b6064820152608401610311565b6000835167ffffffffffffffff81111561053e5761053e611232565b604051908082528060200260200182016040528015610567578160200160208202803683370190505b50905060005b84518110156105df576105b285828151811061058b5761058b611709565b60200260200101518583815181106105a5576105a5611709565b60200260200101516102a9565b8282815181106105c4576105c4611709565b60209081029190910101526105d881611735565b905061056d565b509392505050565b60036020526000908152604090208054610600906116ce565b80601f016020809104026020016040519081016040528092919081815260200182805461062c906116ce565b80156106795780601f1061064e57610100808354040283529160200191610679565b820191906000526020600020905b81548152906001019060200180831161065c57829003601f168201915b505050505081565b336001600160a01b03831614156106ec5760405162461bcd60e51b815260206004820152602960248201527f455243313135353a2073657474696e6720617070726f76616c20737461747573604482015268103337b91039b2b63360b91b6064820152608401610311565b3360008181526001602090815260408083206001600160a01b03871680855290835292819020805460ff191686151590811790915590519081529192917f17307eab39ab6107e8899845ad3d59bd9653f200f220920489ca2b5937696c31910160405180910390a35050565b6004546001600160a01b031633146107a95760405162461bcd60e51b8152602060048201526014602482015273596f752063616e2774206368616e67652055524960601b6044820152606401610311565b6107b282610be3565b80516107c590600590602084019061109d565b505050565b6004546001600160a01b031633146108245760405162461bcd60e51b815260206004820152601760248201527f596f752063616e2774206d696e742056696265506173730000000000000000006044820152606401610311565b6001600160a01b03821660009081526003602052604090208054610847906116ce565b1590506108a25760405162461bcd60e51b8152602060048201526024808201527f566962655061737320616c72656164792061737369676e656420746f206164646044820152637265737360e01b6064820152608401610311565b6001600160a01b038216600090815260036020908152604090912082516108cb9284019061109d565b506108e9826000600160405180602001604052806000815250610bf6565b5050565b6060600580546108fc906116ce565b80601f0160208091040260200160405190810160405280929190818152602001828054610928906116ce565b80156109755780601f1061094a57610100808354040283529160200191610975565b820191906000526020600020905b81548152906001019060200180831161095857829003601f168201915b5050505050905090565b6001600160a01b03851633148061099b575061099b8533610268565b6109f95760405162461bcd60e51b815260206004820152602960248201527f455243313135353a2063616c6c6572206973206e6f74206f776e6572206e6f7260448201526808185c1c1c9bdd995960ba1b6064820152608401610311565b6104b68585858585610d00565b8151835114610a685760405162461bcd60e51b815260206004820152602860248201527f455243313135353a2069647320616e6420616d6f756e7473206c656e677468206044820152670dad2e6dac2e8c6d60c31b6064820152608401610311565b6001600160a01b038416610a8e5760405162461bcd60e51b815260040161031190611750565b3360005b8451811015610b75576000858281518110610aaf57610aaf611709565b602002602001015190506000858381518110610acd57610acd611709565b602090810291909101810151600084815280835260408082206001600160a01b038e168352909352919091205490915081811015610b1d5760405162461bcd60e51b815260040161031190611795565b6000838152602081815260408083206001600160a01b038e8116855292528083208585039055908b16825281208054849290610b5a9084906117df565b9250508190555050505080610b6e90611735565b9050610a92565b50846001600160a01b0316866001600160a01b0316826001600160a01b03167f4a39dc06d4c0dbc64b70af90fd698a233a518aa5d07e595d983b8c0526c8f7fb8787604051610bc59291906117f7565b60405180910390a4610bdb818787878787610e1d565b505050505050565b80516108e990600290602084019061109d565b6001600160a01b038416610c565760405162461bcd60e51b815260206004820152602160248201527f455243313135353a206d696e7420746f20746865207a65726f206164647265736044820152607360f81b6064820152608401610311565b33610c7081600087610c6788610f88565b6104b688610f88565b6000848152602081815260408083206001600160a01b038916845290915281208054859290610ca09084906117df565b909155505060408051858152602081018590526001600160a01b0380881692600092918516917fc3d58168c5ae7397731d063d5bbf3d657854427343f4c083240f7aacaa2d0f62910160405180910390a46104b681600087878787610fd3565b6001600160a01b038416610d265760405162461bcd60e51b815260040161031190611750565b33610d36818787610c6788610f88565b6000848152602081815260408083206001600160a01b038a16845290915290205483811015610d775760405162461bcd60e51b815260040161031190611795565b6000858152602081815260408083206001600160a01b038b8116855292528083208785039055908816825281208054869290610db49084906117df565b909155505060408051868152602081018690526001600160a01b03808916928a821692918616917fc3d58168c5ae7397731d063d5bbf3d657854427343f4c083240f7aacaa2d0f62910160405180910390a4610e14828888888888610fd3565b50505050505050565b6001600160a01b0384163b15610bdb5760405163bc197c8160e01b81526001600160a01b0385169063bc197c8190610e619089908990889088908890600401611825565b602060405180830381600087803b158015610e7b57600080fd5b505af1925050508015610eab575060408051601f3d908101601f19168201909252610ea891810190611883565b60015b610f5857610eb76118a0565b806308c379a01415610ef15750610ecc6118bc565b80610ed75750610ef3565b8060405162461bcd60e51b81526004016103119190611206565b505b60405162461bcd60e51b815260206004820152603460248201527f455243313135353a207472616e7366657220746f206e6f6e20455243313135356044820152732932b1b2b4bb32b91034b6b83632b6b2b73a32b960611b6064820152608401610311565b6001600160e01b0319811663bc197c8160e01b14610e145760405162461bcd60e51b815260040161031190611946565b60408051600180825281830190925260609160009190602080830190803683370190505090508281600081518110610fc257610fc2611709565b602090810291909101015292915050565b6001600160a01b0384163b15610bdb5760405163f23a6e6160e01b81526001600160a01b0385169063f23a6e6190611017908990899088908890889060040161198e565b602060405180830381600087803b15801561103157600080fd5b505af1925050508015611061575060408051601f3d908101601f1916820190925261105e91810190611883565b60015b61106d57610eb76118a0565b6001600160e01b0319811663f23a6e6160e01b14610e145760405162461bcd60e51b815260040161031190611946565b8280546110a9906116ce565b90600052602060002090601f0160209004810192826110cb5760008555611111565b82601f106110e457805160ff1916838001178555611111565b82800160010185558215611111579182015b828111156111115782518255916020019190600101906110f6565b5061111d929150611121565b5090565b5b8082111561111d5760008155600101611122565b80356001600160a01b038116811461114d57600080fd5b919050565b6000806040838503121561116557600080fd5b61116e83611136565b946020939093013593505050565b6001600160e01b03198116811461119257600080fd5b50565b6000602082840312156111a757600080fd5b81356111b28161117c565b9392505050565b6000815180845260005b818110156111df576020818501810151868301820152016111c3565b818111156111f1576000602083870101525b50601f01601f19169290920160200192915050565b6020815260006111b260208301846111b9565b60006020828403121561122b57600080fd5b5035919050565b634e487b7160e01b600052604160045260246000fd5b601f8201601f1916810167ffffffffffffffff8111828210171561126e5761126e611232565b6040525050565b600067ffffffffffffffff82111561128f5761128f611232565b5060051b60200190565b600082601f8301126112aa57600080fd5b813560206112b782611275565b6040516112c48282611248565b83815260059390931b85018201928281019150868411156112e457600080fd5b8286015b848110156112ff57803583529183019183016112e8565b509695505050505050565b600082601f83011261131b57600080fd5b813567ffffffffffffffff81111561133557611335611232565b60405161134c601f8301601f191660200182611248565b81815284602083860101111561136157600080fd5b816020850160208301376000918101602001919091529392505050565b600080600080600060a0868803121561139657600080fd5b61139f86611136565b94506113ad60208701611136565b9350604086013567ffffffffffffffff808211156113ca57600080fd5b6113d689838a01611299565b945060608801359150808211156113ec57600080fd5b6113f889838a01611299565b9350608088013591508082111561140e57600080fd5b5061141b8882890161130a565b9150509295509295909350565b6000806040838503121561143b57600080fd5b823567ffffffffffffffff8082111561145357600080fd5b818501915085601f83011261146757600080fd5b8135602061147482611275565b6040516114818282611248565b83815260059390931b85018201928281019150898411156114a157600080fd5b948201945b838610156114c6576114b786611136565b825294820194908201906114a6565b965050860135925050808211156114dc57600080fd5b506114e985828601611299565b9150509250929050565b600081518084526020808501945080840160005b8381101561152357815187529582019590820190600101611507565b509495945050505050565b6020815260006111b260208301846114f3565b60006020828403121561155357600080fd5b6111b282611136565b6000806040838503121561156f57600080fd5b61157883611136565b91506020830135801515811461158d57600080fd5b809150509250929050565b600080604083850312156115ab57600080fd5b823567ffffffffffffffff808211156115c357600080fd5b6115cf8683870161130a565b935060208501359150808211156115e557600080fd5b506114e98582860161130a565b6000806040838503121561160557600080fd5b61160e83611136565b9150602083013567ffffffffffffffff81111561162a57600080fd5b6114e98582860161130a565b6000806040838503121561164957600080fd5b61165283611136565b915061166060208401611136565b90509250929050565b600080600080600060a0868803121561168157600080fd5b61168a86611136565b945061169860208701611136565b93506040860135925060608601359150608086013567ffffffffffffffff8111156116c257600080fd5b61141b8882890161130a565b600181811c908216806116e257607f821691505b6020821081141561170357634e487b7160e01b600052602260045260246000fd5b50919050565b634e487b7160e01b600052603260045260246000fd5b634e487b7160e01b600052601160045260246000fd5b60006000198214156117495761174961171f565b5060010190565b60208082526025908201527f455243313135353a207472616e7366657220746f20746865207a65726f206164604082015264647265737360d81b606082015260800190565b6020808252602a908201527f455243313135353a20696e73756666696369656e742062616c616e636520666f60408201526939103a3930b739b332b960b11b606082015260800190565b600082198211156117f2576117f261171f565b500190565b60408152600061180a60408301856114f3565b828103602084015261181c81856114f3565b95945050505050565b6001600160a01b0386811682528516602082015260a060408201819052600090611851908301866114f3565b828103606084015261186381866114f3565b9050828103608084015261187781856111b9565b98975050505050505050565b60006020828403121561189557600080fd5b81516111b28161117c565b600060033d11156118b95760046000803e5060005160e01c5b90565b600060443d10156118ca5790565b6040516003193d81016004833e81513d67ffffffffffffffff81602484011181841117156118fa57505050505090565b82850191508151818111156119125750505050505090565b843d870101602082850101111561192c5750505050505090565b61193b60208286010187611248565b509095945050505050565b60208082526028908201527f455243313135353a204552433131353552656365697665722072656a656374656040820152676420746f6b656e7360c01b606082015260800190565b6001600160a01b03868116825285166020820152604081018490526060810183905260a0608082018190526000906119c8908301846111b9565b97965050505050505056fea2646970667358221220dd280faf3e02b636f9a094eca2a7327c7a2431939c6e3cf0d002a7b35d41b2d264736f6c63430008090033",
  "immutableReferences": {},
  "source": "// SPDX-License-Identifier: MIT                                                                                                    \r\n\r\n/* \r\n\r\n+ + + + + + + + + + + + + + + + + + + + + + + + + + + + + + + + + + + + + + + + + + + + + + + + + + + + + + + + +\r\n+                                                ..........                                                     +\r\n+                               -+##*-.         ............            ......                                  +\r\n+         ..:----:::.....    .=#@@@@@@%+.                           ...=+##**+==.        :*:-%%=::+             +\r\n+     .#+++=++++====---:::.  #@@@%%%##%%*.                         :+#*+-====#@@*-     :+#**+****%@#-.          +\r\n+     :@@#*++++++===-:---:   *+=.        .      ....    .....    --.#=       .-#@%-.   #%*+=.:--=+@@@#.         +\r\n+      +@@%%%%%#*****+=--=  -#==:..      .     ::::.......::::  :*=#= ...  ..::+@@%#. =%##-:::-=++%@@@*         +\r\n+       .#%@%####++***+*=: -+%*++*:.:====:   :+=--:::..:::--=+=  +:::-=+=:.:*++#%@%%= +%#*+++-=*##@@@@+         +\r\n+        +@@@@@@%+#@@@#*#  =@@###+-..=**:-=  #+#+=---::---==*+@. :  -:*#=. =+###@*-#. =%##%@#=+@#@@@@@+         +\r\n+        :@@@@@@#=+***#*=  .@@#=--:  ..::+-  *@@#+==----==+*%@@  :=:=::..+#%=:-#@%%*  -%%#**=-=%##@@@@=         +\r\n+         :%@@@@%#**##%-.    +@##%%##+==+-.   .-%#*++==++**#+.     :=%+*%@@@@%#%%#.   :#*#**++#@@%@@@@=         +\r\n+          :%%%%@%%*+#+      :@@@@%#%#%##.      -##*++++**#+       .*%*=+-===+=%@.    .#.#*+*#@@@@@#@@-         +\r\n+           :@@@%####+       .+@@#++=+@@-.   .::-=********=-:::    -=..+*-::=#= -*=.   %.-*%*+*%@%=.%%-         +\r\n+          .%@@@@@@@@@:    *@@%@@@@@@@@*#@@+ -:=+**%%%%%%*+++:-     -=+*%@@@%    .=:  .* -#%%%@@@@*:##:         +\r\n+      :%+=%@@@@%*%@%%#-  +@@@@@@@@@@#+==%%*.-:=+%*#@@@@%*##=:-    .--=*#%%%#+#%@@@=   #*%%%#*#%@%%@@+.         +\r\n+     =+@@@@@@@@%#%@%%%@%*@@@@@@@@@@%###%###=#=:+#*######*#*--*-.   .  .:-*+=****#@@@@@@%%%%##**#%@@@@@#=       +\r\n+     @@@@@@@@@@@@@@%%@%@@@@@%@@@@@@@@%=:=::-+*-=***+**+*##=:=*-:.....  .:::::=*%@@@@@@@@%%%#**###*%%#%%@@      +\r\n+                                                                                                               +\r\n+                                                                                                               +\r\n+                                                                                                               +\r\n+                                                                               +\r\n+                                                                               +\r\n+                                                                                                               +\r\n+ + + + + + + + + + + + + + + + + + + + + + + + + + + + + + + + + + + + + + + + + + + + + + + + + + + + + + + + +\r\n\r\nWritten by @0xmend\r\n\r\n*/\r\n\r\npragma solidity ^0.8.9;\r\n\r\nimport \"@openzeppelin/contracts/token/ERC1155/ERC1155.sol\";\r\n\r\ncontract VibePass is ERC1155{\r\n\r\n    mapping(address => string) public vibePassVoucher;\r\n    address public owner;\r\n    string contractMetadata;\r\n\r\n    constructor(string memory _contractMetadata, string memory baseURI) \r\n        ERC1155(baseURI) {\r\n            owner = msg.sender;\r\n            contractMetadata = _contractMetadata;\r\n        }\r\n    \r\n    function contractURI() public view returns (string memory) {\r\n        return contractMetadata;\r\n    }\r\n\r\n    function name() public pure returns (string memory) {\r\n        return \"VibePass\";\r\n    }\r\n\r\n    function symbol() public pure returns (string memory) {\r\n        return \"VIBEPASS\";\r\n    } \r\n\r\n    function setURI(string memory _baseURI, string memory _contractMetadata) external  {\r\n        require(msg.sender == owner, \"You can't change URI\");\r\n        _setURI(_baseURI);\r\n        contractMetadata = _contractMetadata;\r\n    }\r\n    \r\n    function mint(address to, string memory _passData) external  {\r\n        require(msg.sender == owner, \"You can't mint VibePass\");\r\n        require(bytes(vibePassVoucher[to]).length == 0, \"VibePass already assigned to address\");\r\n        vibePassVoucher[to] = _passData;\r\n        _mint(to, 0, 1, \"\");      \r\n    }\r\n}",
  "sourcePath": "C:\\Users\\aakash\\Documents\\Development\\vibeheads-polygon-legal\\contracts\\VibePass.sol",
  "compiler": {
    "name": "solc",
    "version": "0.8.9+commit.e5eed63a.Emscripten.clang"
  },
  "schemaVersion": "3.4.3",
  "updatedAt": "2021-11-05T19:10:23.421Z",
  "networkType": "ethereum",
  "devdoc": {
    "kind": "dev",
    "methods": {
      "balanceOf(address,uint256)": {
        "details": "See {IERC1155-balanceOf}. Requirements: - `account` cannot be the zero address."
      },
      "balanceOfBatch(address[],uint256[])": {
        "details": "See {IERC1155-balanceOfBatch}. Requirements: - `accounts` and `ids` must have the same length."
      },
      "isApprovedForAll(address,address)": {
        "details": "See {IERC1155-isApprovedForAll}."
      },
      "safeBatchTransferFrom(address,address,uint256[],uint256[],bytes)": {
        "details": "See {IERC1155-safeBatchTransferFrom}."
      },
      "safeTransferFrom(address,address,uint256,uint256,bytes)": {
        "details": "See {IERC1155-safeTransferFrom}."
      },
      "setApprovalForAll(address,bool)": {
        "details": "See {IERC1155-setApprovalForAll}."
      },
      "supportsInterface(bytes4)": {
        "details": "See {IERC165-supportsInterface}."
      },
      "uri(uint256)": {
        "details": "See {IERC1155MetadataURI-uri}. This implementation returns the same URI for *all* token types. It relies on the token type ID substitution mechanism https://eips.ethereum.org/EIPS/eip-1155#metadata[defined in the EIP]. Clients calling this function must replace the `\\{id\\}` substring with the actual token type ID."
      }
    },
    "version": 1
  },
  "userdoc": {
    "kind": "user",
    "methods": {},
    "version": 1
  }
}